:020000040800F2
:10000000005000203D1C0008791A00087F1A0008E3
:10001000851A00088B1A0008911A000800000000D9
:10002000000000000000000000000000971A000817
:10003000A31A000800000000AF1A0008BB1A00084D
:10004000851C0008851C0008851C0008851C00080C
:10005000851C0008851C0008851C0008851C0008FC
:10006000851C0008851C0008851C0008851C0008EC
:10007000851C0008851C0008851C0008851C0008DC
:10008000851C0008851C0008851C0008851C0008CC
:10009000851C0008851C0008851C0008851C0008BC
:1000A000851C0008C91A0008851C0008851C00086A
:1000B000DD1A0008851C0008851C0008851C000846
:1000C000851C0008851C0008851C0008851C00088C
:1000D000851C0008851C0008851C0008851C00087C
:1000E000851C0008851C0008851C00080000000015
:1000F0000000000000000000000000000000000000
:0C01000000000000000000005FF808F1A3
:10010C0010B5054C237833B9044B13B10448AFF345
:10011C0000800123237010BDE800002000000000C7
:10012C000C4D000808B5034B1BB103490348AFF352
:10013C00008008BD00000000EC0000200C4D000801
:10014C0080B483B000AF7860094A7B6852F82330E2
:10015C00012B06D1064A7B68002142F823100123AB
:10016C0000E0002318460C37BD4680BC704700BF2A
:10017C000401002080B483B000AF7860044A7B682F
:10018C00012142F8231000BF0C37BD4680BC7047DC
:10019C000401002080B582B000AF7860424A7B68D1
:1001AC001B01134404331A683F497B681B010B4441
:1001BC001A603D4A7B681B01134408331A683A499C
:1001CC007B681B010B4404331A60384A7B6852F875
:1001DC0023301846364A7B6852F823309BB21946B6
:1001EC0001F0E2FF034619462F4A7B681B011344BA
:1001FC00083319602C4A7B681B0113441A682A497E
:10020C007B681B010B4404331B689A4247D1264A76
:10021C007B681B01134404331A6823497B681B0158
:10022C000B4408331B689A4239D11F4A7B681B0167
:10023C0013440C331A681C497B681B010B440833AC
:10024C001B689A421BD0184A7B681B011344083365
:10025C001A6815497B681B010B440C331A60124A4F
:10026C007B681B01134408331B68002B17D178687B
:10027C00FFF780FF0F4B4FF4FA621A600FE00D4B43
:10028C001B68013B0B4A13600A4B1B68002B06D101
:10029C00054A7B681B0113440C3301221A6000BF12
:1002AC000837BD4680BD00BF000000204400002080
:1002BC00540000204000002080B586B000AFA04B59
:1002CC001B68013B042B00F2A88201A252F823F018
:1002DC00F102000861030008DB040008470600086F
:1002EC002D070008964B02221A60964B1A68964B03
:1002FC001B681A44954B1B681344642202FB03F3DE
:10030C007B600921786801F035FA8E4B1B688E4AA8
:10031C0012681146184600F06DFC8B4B1B6864226A
:10032C0002FB03F30021184601F024FA012164209A
:10033C0001F020FA08210A2001F01CFA844B6422F7
:10034C001A600021834802F097FC824B1B68002244
:10035C005A636BE200220021012000F06FFC0022A6
:10036C000121002000F0B0FC7B4B5B6A012B0DD10E
:10037C007A4B00221A607A4B00221A60744B64226A
:10038C001A6000220021002000F0EAFC734B1B686D
:10039C00012B04D100220121002000F0E1FC714B63
:1003AC001B68002B0FD06A4B1A686A4B1B685A6388
:1003BC00644B1B684F2292FBF3F2654B1B68134492
:1003CC00634A136003E0634B1B6800225A63624B61
:1003DC001B68012B13D15D4B1B68642202FB03F3DA
:1003EC000021184601F0C6F9554B03221A60574BF1
:1003FC001B68564A12681146184600F0FBFB564B18
:10040C005B68012B05D100F0D3FB0121642001F0C6
:10041C00B1F9514B1B6A002B0DD0514B1B68002BB3
:10042C0005D0504B1B6883F001034E4A1360082122
:10043C000A2001F09FF90120FFF782FE0346012BF1
:10044C001ED100220021002000F0F8FB0022002128
:10045C00002000F039FC00220021002000F080FC7C
:10046C000321642001F086F9354B0B221A603E48BB
:10047C0003F0F6FC334B1B6819463C4803F06AFC4E
:10048C000020FFF75DFE0346012B40F0C8810022DF
:10049C000121002000F064FC304B01221A60304B2B
:1004AC0001221A60274B1A68274B1B681A44274BEA
:1004BC001B681344C82202FB03F3BB600921B86814
:1004CC0001F058F908210A2001F054F9A7E10022A3
:1004DC000021012000F0B2FB01220021002000F0DD
:1004EC00F3FB1D4B5B6A012B0DD11C4B00221A60D8
:1004FC001B4B00221A60164B64221A60002200214A
:10050C00002000F02DFC154B1B68012B04D10022A0
:10051C000121002000F024FC124B1B68002B27D07B
:10052C000B4B1A680B4B1B685A63064B1B684F220C
:10053C0092FBF3F2064B1B681344054A13601BE055
:10054C002001002064000020680000206C000020C6
:10055C0070000020640200202402002014010020FE
:10056C00180100201C010020244D00084C4D0008EF
:10057C00B04B1B6800225A63AF4B1B68012B19D17F
:10058C00AE4B1B68642202FB03F30021184601F0FA
:10059C00F1F8AB4B04221A60AA4B00221A60AA4B4A
:1005AC0064221A60A54B1B68A84A126811461846AB
:1005BC0000F020FBA04B5B68012B05D100F0F8FA92
:1005CC000121642001F0D6F89B4B1B6A002B0DD047
:1005DC009C4B1B68002B05D09D4B1B6883F00103C3
:1005EC009B4A136008210A2001F0C4F80020FFF791
:1005FC00A7FD0346012B40F01481002201210020AD
:10060C0000F0AEFB934B01221A608E4B01221A6054
:10061C008E4B1A68894B1B681A448F4B1B6813440A
:10062C00C82202FB03F3FB600921F86801F0A2F871
:10063C0008210A2001F09EF8F3E00022012100209D
:10064C0000F0FCFA00220021012000F03DFB7A4B67
:10065C005B6A012B0ED17F4B00221A60794B002272
:10066C001A6000220021002000F07AFB714B1B68FD
:10067C0000225A63774B1B68012B08D10022002102
:10068C00012000F06DFB6B4B1B6800225A636A4B18
:10069C001B68012B13D1704B1B68642202FB03F304
:1006AC000021184601F066F8654B05221A606A4B6A
:1006BC001B68694A12681146184600F09BFA5E4B9B
:1006CC005B68012B05D100F073FA0121642001F065
:1006DC0051F80020FFF734FD0346012B40F0A380B6
:1006EC0000220021012000F03BFB5A4B01221A6032
:1006FC00544B01221A60554B1A68504B1B681A4414
:10070C00554B1B681344C82202FB03F33B610921C0
:10071C00386901F02FF808210A2001F02BF882E04B
:10072C0001220021002000F089FA00220021012082
:10073C0000F0CAFA404B5B6A012B0ED1454B0022EC
:10074C001A60404B00221A6000220021002000F0A9
:10075C0007FB384B1B6800225A633E4B1B68012B6E
:10076C000CD100220021012000F0FAFA08210A2005
:10077C0001F000F82F4B1B6800225A632E4B1B68AC
:10078C00012B1AD12D4B1B68642202FB03F30021B1
:10079C00184600F0EFFF2A4B02221A602B4B1B6805
:1007AC00264A12681146184600F024FA294B1B6899
:1007BC00002B02D0234B01221A601F4B5B68012BCC
:1007CC0005D100F0F5F90121642000F0D3FF0020E1
:1007DC00FFF7B6FC0346012B27D100220021012094
:1007EC0000F0BEFA1B4B01221A60164B01221A6054
:1007FC00164B1A68114B1B681A44174B1B68134491
:10080C00C82202FB03F37B610921786900F0B2FF77
:10081C0008210A2000F0AEFF07E000BF06E000BF91
:10082C0004E000BF02E000BF00E000BF00BF1837CB
:10083C00BD4680BD64020020240200206800002018
:10084C00200100201801002070000020640000200E
:10085C001C010020140100206C00002080B400AFAB
:10086C00074B1B68074A1360074B1B68074A13604A
:10087C00074B1B68074A136000BFBD4680BC70471E
:10088C0064000020580200206C0000206002002050
:10089C00680000205C02002080B500AFB14B1B68E3
:1008AC000D2B00F0ED800D2B00F352810B2B02D0A1
:1008BC000C2B73D04CE1AC4BDB68012B22D1AB4B36
:1008CC001B68002B0AD000220021012000F0B6F991
:1008DC0000220021012000F0F7F909E0002200219C
:1008EC00002000F0ABF900220021002000F0ECF910
:1008FC009E4B1B68C3F101039C4A136003216420C7
:10090C0000F038FF0120FFF71BFC0346012B16D12A
:10091C0000220021002000F091F90022002100208B
:10092C0000F0D2F90321642000F024FF8D4B0C223F
:10093C001A608F4B1B6819468E4803F00BFA022085
:10094C00FFF7FEFB0346012B12D18B4B1B680133C7
:10095C00894A1360884B1B68622B03DD874B1B682D
:10096C00854A1360844B1B681946824803F0F2F9E0
:10097C000320FFF7E5FB0346012B40F0EC807E4B98
:10098C001B687E4A13607D4B1A687D4B1B68D31A1B
:10099C007C4A1360734B01221A60DCE0724BDB68FB
:1009AC00012B22D1714B1B68002B0AD00122002194
:1009BC00002000F043F901220021002000F084F90E
:1009CC0009E000220021002000F038F9002200216B
:1009DC00002000F079F9654B1B68C3F10103634AF1
:1009EC0013600321642000F0C5FE0120FFF7A8FB73
:1009FC000346012B16D100220021002000F01EF925
:100A0C0000220021002000F05FF90321642000F097
:100A1C00B1FE544B0D221A605B4B1B6819465548AE
:100A2C0003F098F90220FFF78BFB0346012B12D140
:100A3C004F4B1B6801334E4A13604D4B1B68622BA6
:100A4C0003DD4F4B1B684A4A1360494B1B68194620
:100A5C00484803F07FF90320FFF772FB0346012B94
:100A6C007BD1434B1B68464A1360464B1A68444B78
:100A7C001B681344414A13603A4B01221A606CE024
:100A8C00394BDB68012B22D1384B1B68002B0AD069
:100A9C0000220121002000F0D1F8002201210020C9
:100AAC0000F012F909E000220021002000F0C6F845
:100ABC0000220021002000F007F92C4B1B68C3F129
:100ACC0001032A4A13600321642000F053FE012025
:100ADC00FFF736FB0346012B0CD10022002100202E
:100AEC0000F0ACF800220021002000F0EDF81D4BC6
:100AFC0001221A600220FFF723FB0346012B12D1BF
:100B0C00214B1B680133204A13601F4B1B68622B5F
:100B1C0003DD1C4B1B681C4A13601B4B1B681946DE
:100B2C00144803F017F90320FFF70AFB0346012BC7
:100B3C0015D1154B1B68134A1360124B1A68104BD6
:100B4C001B6813440D4A1360064B01221A6006E021
:100B5C00FFF784FE04E000BF02E000BF00E000BF2E
:100B6C0000BF80BD20010020240200207400002062
:100B7C0060020020604D0008580200206400002034
:100B8C006C000020680000205C02002080B582B060
:100B9C0000AF7860391D4FF0FF330122034802F09B
:100BAC0027FF7B6818460837BD4680BDF40200203D
:100BBC0080B500AF0B4B1B68013B0A4A13600A4B14
:100BCC001B68013B084A1360064B1B681946074813
:100BDC0003F0C0F8044B1B681946054803F0BAF83B
:100BEC0000BF80BD2401002028010020744D0008A6
:100BFC00984D000880B582B000AF786039600B4A20
:100C0C007B6813600A4A3B681360084B1B681946E3
:100C1C00084803F09FF8064B1B681946064803F07A
:100C2C0099F800BF0837BD4680BD00BF24010020E5
:100C3C0028010020744D0008984D000880B584B040
:100C4C0000AFF860B9607A60FB68012B09D1012212
:100C5C0020211C4801F0BFFA00221021194801F094
:100C6C00BAFABB68012B09D100222021154801F0EA
:100C7C00B2FA01221021134801F0ADFA7B68012B66
:100C8C0009D1012220210F4801F0A5FA01221021DF
:100C9C000C4801F0A0FAFB68002B0FD1BB68002BAD
:100CAC000CD17B68002B09D100222021054801F0D2
:100CBC0092FA00221021034801F08DFA00BF103780
:100CCC00BD4680BD000C014080B584B000AFF8601B
:100CDC00B9607A60FB68012B0AD101224FF4806164
:100CEC001D4801F078FA002208211C4801F073FA23
:100CFC00BB68012B0AD100224FF48061164801F029
:100D0C006AFA01220821154801F065FA7B68012B6B
:100D1C000AD101224FF480610F4801F05CFA0122E4
:100D2C0008210E4801F057FAFB68002B10D1BB6864
:100D3C00002B0DD17B68002B0AD100224FF480616F
:100D4C00054801F048FA00220821044801F043FA52
:100D5C0000BF1037BD4680BD00080140000C0140AB
:100D6C0080B584B000AFF860B9607A60FB68012B85
:100D7C000BD101224FF480611F4801F02CFA0022A4
:100D8C004FF480711D4801F026FABB68012B0BD182
:100D9C0000224FF48061184801F01DFA01224FF433
:100DAC008071164801F017FA7B68012B0AD10122D9
:100DBC004FF48061114801F00EFA012208210E480F
:100DCC0001F009FAFB68002B11D1BB68002B0ED186
:100DDC007B68002B0BD100224FF48061064801F098
:100DEC00FAF900224FF48071044801F0F4F900BFC5
:100DFC001037BD4680BD00BF000C0140000801400B
:100E0C0080B500AF002000F0CDFC012000F0CAFC42
:100E1C00032000F0C7FC082000F0C4FC092000F0FF
:100E2C00C1FC0020FFF7B6F90120FFF7B3F902204F
:100E3C00FFF7B0F90320FFF7ADF900BF80BD00004C
:100E4C0080B582B000AF78607B681B68074A93421C
:100E5C0001D100F029FF7B681B68B3F1804F01D1F1
:100E6C0000F0D6F900BF0837BD4680BD002C01400C
:100E7C0080B500AF00F002FF00F02AF800F054F942
:100E8C0000F066F800F0B0F800F024F90B4801F01F
:100E9C0049FE012200210A4800F0E2F9012200215A
:100EAC00084800F0DDF901220021074800F0D8F9CC
:100EBC00064B01221A6000F01DFCFCE7AC0200207E
:100ECC000D0E0008C5020008A5080008200100202E
:100EDC0080B590B000AF07F1180328220021184606
:100EEC0002F030FF3B1D00221A605A609A60DA60F3
:100EFC001A610223BB610123BB621023FB62022334
:100F0C007B630023BB634FF46013FB6307F118038F
:100F1C00184601F079F90346002B01D000F072F964
:100F2C000F237B600223BB60A023FB6000233B618B
:100F3C0000237B613B1D0221184601F0E5FB0346B3
:100F4C00002B01D000F05EF900BF4037BD4680BDDC
:100F5C0080B586B000AF07F1080300221A605A6012
:100F6C009A60DA603B4600221A605A601D4B4FF0C3
:100F7C0080421A601B4B41F63F725A60194B00229B
:100F8C009A60184B0922DA60164B00221A61154B35
:100F9C0000229A61134801F075FD0346002B01D025
:100FAC0000F030F94FF48053BB6007F10803194689
:100FBC000C4802F0CDF80346002B01D000F022F9CA
:100FCC0000233B6000237B603B461946054802F03A
:100FDC004FFC0346002B01D000F014F900BF18376A
:100FEC00BD4680BDAC02002080B58EB000AF07F1CD
:100FFC00280300221A605A609A60DA6007F1200315
:10100C0000221A605A603B1D00221A605A609A60D6
:10101C00DA601A615A619A612C4B2D4A1A602B4B7B
:10102C0077225A60294B00229A60284B6422DA609E
:10103C00264B00221A61254B00229A61234801F0AD
:10104C0021FD0346002B01D000F0DCF84FF4805357
:10105C00BB6207F1280319461C4802F079F80346D5
:10106C00002B01D000F0CEF8184801F0ADFD03467E
:10107C00002B01D000F0C6F800233B6200237B62FA
:10108C0007F120031946114802F0F2FB0346002B2E
:10109C0001D000F0B7F860237B600023BB60002315
:1010AC00FB6000237B613B1D00221946074801F0C1
:1010BC008DFF0346002B01D000F0A4F8034800F08C
:1010CC0003FC00BF3837BD4680BD00BF6402002062
:1010DC000004004080B500AF114B124A1A60104B4F
:1010EC004FF416525A600E4B00229A600C4B0022A1
:1010FC00DA600B4B00221A61094B0C225A61084B27
:10110C0000229A61064B0022DA61054802F020FCAD
:10111C000346002B01D000F075F800BF80BD00BF66
:10112C00F40200200044004080B586B000AF07F107
:10113C00080300221A605A609A60DA602E4B9B6991
:10114C002D4A43F0040393612B4B9B6903F004037A
:10115C007B607B68284B9B69274A43F008039361AB
:10116C00254B9B6903F008033B603B6800224FF45E
:10117C008761224801F02FF800224FF4A06120482B
:10118C0001F029F81323BB600023FB6001233B61B2
:10119C0007F1080319461A4800F082FE0123BB60D0
:1011AC000023FB6001233B6107F108031946134838
:1011BC0000F076FE4FF48763BB600123FB600023D5
:1011CC003B6102237B6107F1080319460B4800F0D1
:1011DC0067FE4FF4A063BB600123FB6000233B61FF
:1011EC0002237B6107F108031946054800F058FEFD
:1011FC0000BF1837BD4680BD00100240000C0140F6
:10120C000008014080B400AF72B600BFFEE70000DA
:10121C0080B400AF104B1B6801330F4A13600F4BA7
:10122C001B68002B13D00D4B1B7B002B0FD10B4BD2
:10123C005B68002B04D0094B5B68013B074A536089
:10124C00064B5B68002B02D1044B01221A7300BFC2
:10125C00BD4680BC704700BFF80100202C01002067
:10126C0090B589B000AFF860B9607A600023FB7765
:10127C000023BB6100233B610023FB7733E1FA7F42
:10128C00A14913469B0013449B000B4404331B6879
:10129C00BA691344BB61BA69BB689A4240F2C18017
:1012AC00FA7F994913469B0013449B000B4404336B
:1012BC001A68BB69D31ABA6813443B61FA7FB969DF
:1012CC00BB68C91A904813469B0013449B00034407
:1012DC00043319600923FB754CE0FB7D591EFA7D24
:1012EC0089480B469B000B449B00034419688648B5
:1012FC0013469B0013449B0003441960FB7D591E4D
:10130C00FA7D81480B469B000B449B000344083339
:10131C0019687D4813469B0013449B000344083313
:10132C001960FB7D591EFA7D77480B469B000B44D8
:10133C009B00034404331968734813469B00134401
:10134C009B00034404331960FB7D591EFA7D6E48E3
:10135C000B469B000B449B000344103319686A48EE
:10136C0013469B0013449B00034410331960FB7D10
:10137C00013BFB75FA7DFB7F9A42AED8FA7F62493E
:10138C0013469B0013449B000B44FA681A60FA7FC7
:10139C005D4913469B0013449B000B4404333A698C
:1013AC001A60FA7F584913469B0013449B000B4468
:1013BC0008337A681A60FA7F534913469B0013442A
:1013CC009B000B4404331B68002B0AD1FA7F4E4957
:1013DC0013469B0013449B000B440C3301221A70E0
:1013EC0009E0FA7F484913469B0013449B000B44C9
:1013FC000C3300221A70FC7F00F0A4F9024642491B
:10140C0023469B0023449B000B4410331A60FA7F45
:10141C003D4913469B0013449B000B4410331B683F
:10142C006EE0FA7F384913469B0013449B000B4433
:10143C001B68002B54D1FA7F334913469B0013448D
:10144C009B000B44FA681A60FA7FB968BB69C91A29
:10145C002D4813469B0013449B000344043319602E
:10146C00FA7F294913469B0013449B000B44083315
:10147C007A681A60FA7F244913469B0013449B0038
:10148C000B4404331B68002B0AD1FA7F1E49134608
:10149C009B0013449B000B440C3301221A7009E08F
:1014AC00FA7F194913469B0013449B000B440C33E1
:1014BC0000221A70FC7F00F045F9024612492346BF
:1014CC009B0023449B000B4410331A60FA7F0E4997
:1014DC0013469B0013449B000B4410331B680FE016
:1014EC00FB7F0133FB77FB7F092B7FF6C8AEFA7FBE
:1014FC00054913469B0013449B000B4410331B6897
:10150C0018462437BD4690BD2C01002080B485B010
:10151C0000AF786000237B737B68002B00F0E280C7
:10152C000023FB73DAE0FA7B714913469B001344EA
:10153C009B000B4410331B687A689A4240F0CB80B6
:10154C0001237B73FB7B002B2BD0FB7B082B28D838
:10155C00FB7B5A1C664913469B0013449B000B44AF
:10156C001B68002B1DD0FB7B5A1C614913469B004A
:10157C0013449B000B4404331968FA7B5C481346F4
:10158C009B0013449B00034404331B68FA7B013219
:10159C001944574813469B0013449B0003440433DF
:1015AC001960FB7BBB7360E0BB7B591CBA7B50485A
:1015BC000B469B000B449B00034419684C48134694
:1015CC009B0013449B0003441960BB7B591CBA7BE2
:1015DC0047480B469B000B449B0003440833196897
:1015EC00434813469B0013449B0003440833196083
:1015FC00BB7B591CBA7B3E480B469B000B449B00A3
:10160C000344043319683A4813469B0013449B0067
:10161C00034404331960BB7B591CBA7B34480B461A
:10162C009B000B449B0003440C3318783049134641
:10163C009B0013449B000B440C3302461A70BB7B7B
:10164C00591CBA7B2A480B469B000B449B00034455
:10165C0010331968264813469B0013449B0003441F
:10166C0010331960BB7B0133BB73BB7B082B9BD93D
:10167C00BA7B1F4913469B0013449B000B4400226A
:10168C001A60BA7B1A4913469B0013449B000B4407
:10169C00083300221A60BA7B154913469B00134489
:1016AC009B000B44043300221A60BA7B104913468A
:1016BC009B0013449B000B440C3300221A70BA7B22
:1016CC000B4913469B0013449B000B441033002220
:1016DC001A607B7B07E0FB7B0133FB73FB7B092BE5
:1016EC007FF621AF7B7B18461437BD4680BC704714
:1016FC002C010020B0B586B000AF114B1B7B002B2A
:10170C0019D00F4B1B6898470D4B00221A730C4BCA
:10171C003C1D1D460FCD0FC42B6823607B691846FA
:10172C00FFF7F4FEFB68002B05D07B68F968FA68BC
:10173C001846FFF795FD00BF1837BD46B0BD00BF7A
:10174C002C01002080B400AF094B1B680133084A00
:10175C001360074B1B68002B04D1054B1B6801332E
:10176C00034A1360024B1B681846BD4680BC704789
:10177C00F401002080B483B000AF78603960074971
:10178C003B687A6841F82320054A3B68002142F8FF
:10179C00231000BF0C37BD4680BC7047FC010020F5
:1017AC002402002080B483B000AF78600F4A7B68BD
:1017BC0052F82330002B13DD0C4A7B6852F823308F
:1017CC005A1E0A497B6841F82320084A7B6852F864
:1017DC002330002B04DC064A7B68012142F82310DD
:1017EC0000BF0C37BD4680BC704700BFFC01002019
:1017FC002402002080B485B000AF154B9B69144ABD
:10180C0043F001039361124B9B6903F00103BB602E
:10181C00BB680F4BDB690E4A43F08053D3610C4B12
:10182C00DB6903F080537B607B680A4B5B68FB6071
:10183C00FB6823F0E063FB60FB6843F00073FB6024
:10184C00044AFB68536000BF1437BD4680BC704728
:10185C00001002400000014080B584B000AF7860F9
:10186C007B681B68B3F1804F14D1154BDB69144AAC
:10187C0043F00103D361124BDB6903F00103FB60FE
:10188C00FB68002200211C2000F0DFFA1C2000F075
:10189C00F8FA10E07B681B680A4A93420BD1084B9C
:1018AC00DB69074A43F00203D361054BDB6903F0A4
:1018BC000203BB60BB6800BF1037BD4680BD00BFD4
:1018CC00001002400004004080B588B000AF786082
:1018DC0007F1100300221A605A609A60DA607B6884
:1018EC001B680F4A934217D10E4B9B690D4A43F06C
:1018FC00040393610B4B9B6903F00403FB60FB68CF
:10190C0040233B6102237B610223FB6107F110033F
:10191C001946054800F0C4FA00BF2037BD4680BD0B
:10192C0000040040001002400008014080B588B05F
:10193C0000AF786007F1100300221A605A609A60B9
:10194C00DA607B681B681B4A93422FD11A4BDB6908
:10195C00194A43F40033D361174BDB6903F40033AA
:10196C00FB60FB68144B9B69134A43F004039361BF
:10197C00114B9B6903F00403BB60BB6804233B6100
:10198C0002237B610323FB6107F1100319460B480B
:10199C0000F086FA08233B6100237B610023BB61C6
:1019AC0007F110031946054800F07AFA00BF2037FA
:1019BC00BD4680BD004400400010024000080140BC
:1019CC0080B58CB000AF78600023FB620023BB6253
:1019DC0000227968192000F038FA192000F051FA29
:1019EC001E4B9B691D4A43F4006393611B4B9B691F
:1019FC0003F40063FB60FB6807F1100207F11403AA
:101A0C001146184600F0F0FF00F0DAFFF862FB6AAE
:101A1C00134AA2FB03239B0C013BBB62114B124AE2
:101A2C001A60104B40F2E732DA600E4ABB6A536020
:101A3C000C4B00221A610B4B00229A60094801F0F2
:101A4C0021F80346002B04D1064801F06BF803463D
:101A5C0000E0012318463037BD4680BD001002401F
:101A6C0083DE1B433C030020002C014080B400AFFC
:101A7C00FEE780B400AFFEE780B400AFFEE780B4B1
:101A8C0000AFFEE780B400AFFEE780B400AF00BF4C
:101A9C00BD4680BC704780B400AF00BFBD4680BC63
:101AAC00704780B400AF00BFBD4680BC704780B4A7
:101ABC0000AF00BFBD4680BC7047000080B500AFD2
:101ACC00024801F07BF900BF80BD00BF3C03002041
:101ADC0080B500AF024801F071F900BF80BD00BFB6
:101AEC00AC02002080B586B000AFF860B9607A60B7
:101AFC0000237B610AE0AFF300800146BB685A1CEF
:101B0C00BA60CAB21A707B6901337B617A697B68EF
:101B1C009A42F0DB7B6818461837BD4680BD80B50D
:101B2C0086B000AFF860B9607A6000237B6109E091
:101B3C00BB685A1CBA601B781846FFF727F87B69FC
:101B4C0001337B617A697B689A42F1DB7B681846CA
:101B5C001837BD4680BD80B483B000AF78604FF0BD
:101B6C00FF3318460C37BD4680BC704780B483B039
:101B7C0000AF786039603B684FF400525A60002324
:101B8C0018460C37BD4680BC704780B483B000AF9C
:101B9C007860012318460C37BD4680BC704780B472
:101BAC0085B000AFF860B9607A600023184614372E
:101BBC00BD4680BC7047000080B586B000AF786031
:101BCC00144A154BD31A7B617B693B61134B1B6821
:101BDC00002B02D1114B124A1A60104B1A687B6809
:101BEC0013443A699A4207D202F082F803460C2257
:101BFC001A604FF0FF3309E0084B1B68FB60074B82
:101C0C001A687B681344054A1360FB68184618373A
:101C1C00BD4680BD00500020000400004C02002096
:101C2C009803002080B400AF00BFBD4680BC704755
:101C3C00FFF7F8FF0B480C490C4A002302E0D4587C
:101C4C00C4500433C4188C42F9D3094A094C0023FC
:101C5C0001E013600432A242FBD302F04FF8FFF70D
:101C6C0007F9704700000020E8000020844E0008AF
:101C7C00E800002098030020FEE7000080B500AFCC
:101C8C00084B1B68074A43F010031360032000F055
:101C9C00D1F80F20FFF794FEFFF7ACFD0023184698
:101CAC0080BD00BF0020024080B400AF054B1B7804
:101CBC001A46054B1B681344034A136000BFBD460C
:101CCC0080BC7047800000208403002080B400AFEB
:101CDC00024B1B681846BD4680BC7047840300202D
:101CEC0080B485B000AF78607B6803F00703FB60BD
:101CFC000C4BDB68BB60BA684FF6FF031340BB604C
:101D0C00FB681A02BB68134343F0BF6343F4003310
:101D1C00BB60044ABB68D36000BF1437BD4680BCAF
:101D2C00704700BF00ED00E080B400AF044BDB68EF
:101D3C001B0A03F007031846BD4680BC704700BF62
:101D4C0000ED00E080B483B000AF0346FB7197F95F
:101D5C000730002B0BDBFB7903F01F02064997F9C8
:101D6C0007305B09012000FA02F241F8232000BF82
:101D7C000C37BD4680BC704700E100E080B483B0F6
:101D8C0000AF03463960FB7197F90730002B0ADB73
:101D9C003B68DAB20C4997F907301201D2B20B4406
:101DAC0083F800230AE03B68DAB20849FB7903F0B8
:101DBC000F03043B1201D2B20B441A7600BF0C374E
:101DCC00BD4680BC704700BF00E100E000ED00E0C4
:101DDC0080B489B000AFF860B9607A60FB6803F03A
:101DEC000703FB61FB69C3F10703042B28BF042322
:101DFC00BB61FB690433062B02D9FB69033B00E092
:101E0C0000237B614FF0FF32BB6902FA03F3DA4324
:101E1C00BB681A407B699A404FF0FF317B6901FA2D
:101E2C0003F3D9437B680B40134318462437BD4654
:101E3C0080BC704780B582B000AF78607868FFF7DF
:101E4C004FFF00BF0837BD4680BD80B586B000AFE0
:101E5C000346B9607A60FB7300237B61FFF764FF74
:101E6C0078617A68B9687869FFF7B2FF024697F92A
:101E7C000F3011461846FFF781FF00BF1837BD46DB
:101E8C0080BD80B582B000AF0346FB7197F9073077
:101E9C001846FFF757FF00BF0837BD4680BD00004E
:101EAC0080B48BB000AF7860396000237B62002374
:101EBC003B6269E101227B6A02FA03F3FB613B6836
:101ECC001B68FA691340BB61BA69FB699A4240F01E
:101EDC0058813B685B689A4A93425ED0984A934219
:101EEC0075D8984A934258D0964A93426FD8964ADE
:101EFC00934252D0944A934269D8944A93424CD01C
:101F0C00924A934263D8924A934246D0904A934263
:101F1C005DD8122B2AD8122B59D801A252F823F0D3
:101F2C00A71F0008811F0008931F0008D51F000879
:101F3C00DB1F0008DB1F0008DB1F0008DB1F00088D
:101F4C00DB1F0008DB1F0008DB1F0008DB1F00087D
:101F5C00DB1F0008DB1F0008DB1F0008DB1F00086D
:101F6C00DB1F0008891F00089D1F0008794A934257
:101F7C0013D02CE03B68DB683B6229E03B68DB68F4
:101F8C0004333B6224E03B68DB6808333B621FE0B0
:101F9C003B68DB680C333B621AE03B689B68002BA8
:101FAC0002D104233B6213E03B689B68012B05D1F3
:101FBC0008233B627B68FA691A6109E008233B62DB
:101FCC007B68FA695A6103E000233B6200E000BFC2
:101FDC00BB69FF2B01D87B6801E07B6804337B6114
:101FEC00BB69FF2B02D87B6A9B0002E07B6A083B33
:101FFC009B003B617B691A680F213B6901FA03F373
:10200C00DB431A40396A3B6901FA03F31A437B69D3
:10201C001A603B685B6803F08053002B00F0B180C2
:10202C004D4B9B694C4A43F0010393614A4B9B69AE
:10203C0003F00103BB60BB68484A7B6A9B08023310
:10204C0052F82330FB607B6A03F003039B000F22E2
:10205C0002FA03F3DB43FA681340FB607B68404AE7
:10206C00934213D07B683F4A93420DD07B683E4A23
:10207C00934207D07B683D4A934201D1032306E08B
:10208C00042304E0022302E0012300E000237A6A27
:10209C0002F0030292009340FA681343FB602F494D
:1020AC007B6A9B080233FA6841F823203B685B6823
:1020BC0003F48013002B06D02D4B9A682C49BB6976
:1020CC0013438B6006E02A4B9A68BB69DB432849B3
:1020DC0013408B603B685B6803F40013002B06D045
:1020EC00234BDA682249BB691343CB6006E0204BD3
:1020FC00DA68BB69DB431E491340CB603B685B6805
:10210C0003F40033002B06D0194B5A681849BB69ED
:10211C0013434B6006E0164B5A68BB69DB4314490A
:10212C0013404B603B685B6803F48033002B21D079
:10213C000F4B1A680E49BB6913430B6021E000BFBB
:10214C00000032100000311000002210000021109D
:10215C00000012100000111000100240000001409D
:10216C0000080140000C0140001001400014014027
:10217C00000401400B4B1A68BB69DB43094913404F
:10218C000B607B6A01337B623B681A687B6A22FABC
:10219C0003F3002B7FF48EAE00BF00BF2C37BD467F
:1021AC0080BC70470004014080B485B000AF7860FB
:1021BC000B467B807B689A687B881340002B02D08F
:1021CC000123FB7301E00023FB73FB7B18461437E0
:1021DC00BD4680BC704780B483B000AF78600B46BE
:1021EC007B8013467B707B78002B03D07A887B68CE
:1021FC001A6103E07B881A047B681A6100BF0C37F4
:10220C00BD4680BC7047000080B586B000AF7860DA
:10221C007B68002B01D101236CE27B681B6803F007
:10222C000103002B00F08780924B5B6803F00C03DA
:10223C00042B0CD08F4B5B6803F00C03082B12D1D2
:10224C008C4B5B6803F48033B3F5803F0BD1894B27
:10225C001B6803F40033002B6CD07B685B68002B8D
:10226C0068D1012346E27B685B68B3F5803F06D1F9
:10227C00804B1B687F4A43F4803313602EE07B68ED
:10228C005B68002B0CD17B4B1B687A4A23F48033A0
:10229C001360784B1B68774A23F4802313601DE08E
:1022AC007B685B68B3F5A02F0CD1724B1B68714A2D
:1022BC0043F4802313606F4B1B686E4A43F48033E6
:1022CC0013600BE06B4B1B686A4A23F4803313607A
:1022DC00684B1B68674A23F4802313607B685B6838
:1022EC00002B13D0FFF7F2FC386108E0FFF7EEFC8F
:1022FC0002463B69D31A642B01D90323FAE15D4BE7
:10230C001B6803F40033002BF0D014E0FFF7DEFC65
:10231C00386108E0FFF7DAFC02463B69D31A642BFC
:10232C0001D90323E6E1534B1B6803F40033002B64
:10233C00F0D100E000BF7B681B6803F00203002BA8
:10234C0063D04C4B5B6803F00C03002B0BD0494B58
:10235C005B6803F00C03082B1CD1464B5B6803F441
:10236C008033002B16D1434B1B6803F00203002B68
:10237C0005D07B681B69012B01D00123BAE13D4BD1
:10238C001B6823F0F8027B685B69DB003949134357
:10239C000B603AE07B681B69002B20D0364B012286
:1023AC001A60FFF793FC386108E0FFF78FFC0246D8
:1023BC003B69D31A022B01D903239BE12D4B1B68DC
:1023CC0003F00203002BF0D02A4B1B6823F0F80219
:1023DC007B685B69DB00274913430B6015E0264BD8
:1023EC0000221A60FFF772FC386108E0FFF76EFC00
:1023FC0002463B69D31A022B01D903237AE11D4B08
:10240C001B6803F00203002BF0D17B681B6803F000
:10241C000803002B3AD07B689B69002B19D0174B13
:10242C0001221A60FFF752FC386108E0FFF74EFCFE
:10243C0002463B69D31A022B01D903235AE10D4BF7
:10244C005B6A03F00203002BF0D0012000F0FCFAD1
:10245C001CE00A4B00221A60FFF738FC38610FE0D1
:10246C00FFF734FC02463B69D31A022B08D903232D
:10247C0040E100BF00100240000042428004424292
:10248C009E4B5B6A03F00203002BE9D17B681B684F
:10249C0003F00403002B00F0A6800023FB75974B80
:1024AC00DB6903F08053002B0DD1944BDB69934A0D
:1024BC0043F08053D361914BDB6903F08053BB60D5
:1024CC00BB680123FB758E4B1B6803F48073002BD8
:1024DC0018D18B4B1B688A4A43F480731360FFF747
:1024EC00F5FB386108E0FFF7F1FB02463B69D31AB4
:1024FC00642B01D90323FDE0814B1B6803F480732B
:10250C00002BF0D07B68DB68012B06D17B4B1B6A60
:10251C007A4A43F0010313622DE07B68DB68002BE1
:10252C000CD1764B1B6A754A23F001031362734B73
:10253C001B6A724A23F0040313621CE07B68DB689D
:10254C00052B0CD16D4B1B6A6C4A43F004031362D0
:10255C006A4B1B6A694A43F0010313620BE0674B39
:10256C001B6A664A23F001031362644B1B6A634ABD
:10257C0023F0040313627B68DB68002B15D0FFF794
:10258C00A5FB38610AE0FFF7A1FB02463B69D31AB1
:10259C0041F28832934201D90323ABE0574B1B6ABB
:1025AC0003F00203002BEED014E0FFF78FFB386131
:1025BC000AE0FFF78BFB02463B69D31A41F28832E3
:1025CC00934201D9032395E04C4B1B6A03F00203A1
:1025DC00002BEED1FB7D012B05D1484BDB69474A23
:1025EC0023F08053D3617B68DB69002B00F0818082
:1025FC00424B5B6803F00C03082B61D07B68DB69F2
:10260C00022B46D13F4B00221A60FFF75FFB38616B
:10261C0008E0FFF75BFB02463B69D31A022B01D99A
:10262C00032367E0354B1B6803F00073002BF0D1DC
:10263C007B681B6AB3F5803F08D1304B5B6823F491
:10264C0000327B689B682D4913434B602B4B5B68B6
:10265C0023F474127B68196A7B685B6A0B43274905
:10266C0013434B60274B01221A60FFF72FFB386195
:10267C0008E0FFF72BFB02463B69D31A022B01D96A
:10268C00032337E01D4B1B6803F00073002BF0D0C5
:10269C002FE01C4B00221A60FFF718FB386108E092
:1026AC00FFF714FB02463B69D31A022B01D9032313
:1026BC0020E0124B1B6803F00073002BF0D118E0E4
:1026CC007B68DB69012B01D1012313E00B4B5B68A9
:1026DC00FB60FB6803F480327B681B6A9A4206D16C
:1026EC00FB6803F470127B685B6A9A4201D0012389
:1026FC0000E0002318461837BD4680BD001002408C
:10270C00007000406000424280B584B000AF786039
:10271C0039607B68002B01D10123D0E06A4B1B6828
:10272C0003F007033A689A4210D9674B1B6823F0F1
:10273C00070265493B6813430B60634B1B6803F04E
:10274C0007033A689A4201D00123B8E07B681B6802
:10275C0003F00203002B20D07B681B6803F00403FA
:10276C00002B05D0594B5B68584A43F4E063536027
:10277C007B681B6803F00803002B05D0534B5B6888
:10278C00524A43F460535360504B5B6823F0F002A1
:10279C007B689B684D4913434B607B681B6803F057
:1027AC000103002B40D07B685B68012B07D1474BA2
:1027BC001B6803F40033002B15D101237FE07B68E9
:1027CC005B68022B07D1414B1B6803F00073002B95
:1027DC0009D1012373E03D4B1B6803F00203002B6E
:1027EC0001D101236BE0394B5B6823F003027B685A
:1027FC005B68364913434B60FFF768FAF8600AE0F0
:10280C00FFF764FA0246FB68D31A41F2883293420E
:10281C0001D9032353E02D4B5B6803F00C027B685A
:10282C005B689B009A42EBD1274B1B6803F00703B4
:10283C003A689A4210D2244B1B6823F007022249B3
:10284C003B6813430B60204B1B6803F007033A688B
:10285C009A4201D0012332E07B681B6803F0040329
:10286C00002B08D0194B5B6823F4E0627B68DB68B3
:10287C00164913434B607B681B6803F00803002B5D
:10288C0009D0124B5B6823F460527B681B69DB0038
:10289C000E4913434B6000F021F802460B4B5B686A
:1028AC001B0903F00F030A49CB5C22FA03F3094A14
:1028BC001360094B1B681846FFF782F80023184673
:1028CC001037BD4680BD00BF002002400010024002
:1028DC00B84D0008780000207C00002080B487B040
:1028EC0000AF0023FB600023BB6000237B6100234F
:1028FC007B6000233B611E4B5B68FB60FB6803F055
:10290C000C03042B02D0082B03D027E0194B3B619E
:10291C0027E0FB689B0C03F00F03174AD35C7B602A
:10292C00FB6803F48033002B10D0114B5B685B0CFD
:10293C0003F00103114AD35CBB607B680D4A02FBB8
:10294C0003F2BB68B2FBF3F37B6104E07B680C4AD7
:10295C0002FB03F37B617B693B6102E0054B3B614E
:10296C0000BF3B6918461C37BD4680BC704700BF92
:10297C000010024000127A00D04D0008E04D000813
:10298C0000093D0080B400AF024B1B681846BD46E1
:10299C0080BC70477800002080B500AFFFF7F2FFD5
:1029AC000246054B5B681B0A03F007030349CB5C2B
:1029BC0022FA03F3184680BD00100240C84D0008EF
:1029CC0080B500AFFFF7DEFF0246054B5B68DB0A04
:1029DC0003F007030349CB5C22FA03F3184680BDCE
:1029EC0000100240C84D000880B483B000AF78607E
:1029FC0039607B680F221A60114B5B6803F003028D
:102A0C007B685A600E4B5B6803F0F0027B689A603F
:102A1C000B4B5B6803F4E0627B68DA60084B5B6825
:102A2C00DB0803F4E0627B681A61064B1B6803F059
:102A3C0007023B681A6000BF0C37BD4680BC70476C
:102A4C00001002400020024080B485B000AF7860D6
:102A5C000A4B1B680A4AA2FB03235B0A7A6802FB37
:102A6C0003F3FB6000BFFB685A1EFA60002BF9D120
:102A7C0000BF00BF1437BD4680BC704778000020F3
:102A8C00D34D621080B582B000AF78607B68002BAC
:102A9C0001D1012341E07B6893F83D30DBB2002B80
:102AAC0006D17B68002283F83C207868FEF7D4FEC0
:102ABC007B68022283F83D207B681A687B680433AC
:102ACC001946104600F030FC7B68012283F8462042
:102ADC007B68012283F83E207B68012283F83F202B
:102AEC007B68012283F840207B68012283F8412017
:102AFC007B68012283F842207B68012283F8432003
:102B0C007B68012283F844207B68012283F84520EE
:102B1C007B68012283F83D20002318460837BD4608
:102B2C0080BD000080B485B000AF78607B6893F8FE
:102B3C003D30DBB2012B01D001233AE07B6802224D
:102B4C0083F83D207B681B68DA687B681B6842F061
:102B5C000102DA607B681B68184A93420ED07B68CE
:102B6C001B68B3F1804F09D07B681B68144A9342F1
:102B7C0004D07B681B68134A934211D17B681B6895
:102B8C009B6803F00703FB60FB68062B10D07B6887
:102B9C001B681A687B681B6842F001021A6007E028
:102BAC007B681B681A687B681B6842F001021A601C
:102BBC00002318461437BD4680BC7047002C0140DA
:102BCC00000400400008004080B582B000AF78607F
:102BDC007B68002B01D1012341E07B6893F83D30E9
:102BEC00DBB2002B06D17B68002283F83C2078688E
:102BFC0000F039F87B68022283F83D207B681A6864
:102C0C007B6804331946104600F08EFB7B6801226A
:102C1C0083F846207B68012283F83E207B680122E2
:102C2C0083F83F207B68012283F840207B680122D7
:102C3C0083F841207B68012283F842207B680122C3
:102C4C0083F843207B68012283F844207B680122AF
:102C5C0083F845207B68012283F83D200023184629
:102C6C000837BD4680BD80B483B000AF786000BF2C
:102C7C000C37BD4680BC704780B584B000AF78601F
:102C8C0039603B68002B09D17B6893F83E30DBB28E
:102C9C00012B14BF01230023DBB222E03B68042B81
:102CAC0009D17B6893F83F30DBB2012B14BF0123B1
:102CBC000023DBB215E03B68082B09D17B6893F845
:102CCC004030DBB2012B14BF01230023DBB208E040
:102CDC007B6893F84130DBB2012B14BF0123002336
:102CEC00DBB2002B01D001235EE03B68002B04D14A
:102CFC007B68022283F83E2013E03B68042B04D14E
:102D0C007B68022283F83F200BE03B68082B04D140
:102D1C007B68022283F8402003E07B68022283F860
:102D2C0041207B681B6801223968184600F07CFD45
:102D3C007B681B681E4A934207D17B681B685A6CE0
:102D4C007B681B6842F400425A647B681B68184A13
:102D5C0093420ED07B681B68B3F1804F09D07B681F
:102D6C001B68144A934204D07B681B68124A934236
:102D7C0011D17B681B689B6803F00703FB60FB6841
:102D8C00062B10D07B681B681A687B681B6842F0A6
:102D9C0001021A6007E07B681B681A687B681B6875
:102DAC0042F001021A60002318461037BD4680BD60
:102DBC00002C0140000400400008004080B582B0A7
:102DCC0000AF78607B681B681B6903F00203022B61
:102DDC0022D17B681B68DB6803F00203022B1BD13A
:102DEC007B681B686FF002021A617B6801221A77FC
:102DFC007B681B689B6903F00303002B03D0786886
:102E0C0000F076FA05E0786800F069FA786800F06E
:102E1C0078FA7B6800221A777B681B681B6903F0C1
:102E2C000403042B22D17B681B68DB6803F00403CA
:102E3C00042B1BD17B681B686FF004021A617B6842
:102E4C0002221A777B681B689B6903F44073002B82
:102E5C0003D0786800F04CFA05E0786800F03FFA8F
:102E6C00786800F04EFA7B6800221A777B681B6842
:102E7C001B6903F00803082B22D17B681B68DB68F5
:102E8C0003F00803082B1BD17B681B686FF008024A
:102E9C001A617B6804221A777B681B68DB6903F074
:102EAC000303002B03D0786800F022FA05E0786861
:102EBC0000F015FA786800F024FA7B6800221A7783
:102ECC007B681B681B6903F01003102B22D17B68F5
:102EDC001B68DB6803F01003102B1BD17B681B688D
:102EEC006FF010021A617B6808221A777B681B68E6
:102EFC00DB6903F44073002B03D0786800F0F8F919
:102F0C0005E0786800F0EBF9786800F0FAF97B6876
:102F1C0000221A777B681B681B6903F00103012BE5
:102F2C000ED17B681B68DB6803F00103012B07D112
:102F3C007B681B686FF001021A617868FDF780FFEF
:102F4C007B681B681B6903F08003802B0ED17B68A8
:102F5C001B68DB6803F08003802B07D17B681B6840
:102F6C006FF080021A61786800F0E9FC7B681B68DE
:102F7C001B6903F04003402B0ED17B681B68DB6898
:102F8C0003F04003402B07D17B681B686FF04002B5
:102F9C001A61786800F0BEF97B681B681B6903F046
:102FAC002003202B0ED17B681B68DB6803F0200309
:102FBC00202B07D17B681B686FF020021A617868A0
:102FCC0000F0B4FC00BF0837BD4680BD80B586B0AC
:102FDC0000AFF860B9607A600023FB75FB6893F86A
:102FEC003C30012B01D10223AEE0FB68012283F8B7
:102FFC003C207B680C2B00F29F8001A252F823F03E
:10300C0041300008453100084531000845310008C1
:10301C008130000845310008453100084531000871
:10302C00C33000084531000845310008453100081F
:10303C0003310008FB681B68B968184600F0D6F924
:10304C00FB681B689A69FB681B6842F008029A616E
:10305C00FB681B689A69FB681B6822F004029A6182
:10306C00FB681B689969BB681A69FB681B680A4393
:10307C009A6164E0FB681B68B968184600F01CFA9A
:10308C00FB681B689A69FB681B6842F400629A61D2
:10309C00FB681B689A69FB681B6822F480629A6162
:1030AC00FB681B689969BB681B691A02FB681B6883
:1030BC000A439A6143E0FB681B68B968184600F044
:1030CC0065FAFB681B68DA69FB681B6842F008024A
:1030DC00DA61FB681B68DA69FB681B6822F0040282
:1030EC00DA61FB681B68D969BB681A69FB681B68E5
:1030FC000A43DA6123E0FB681B68B968184600F0E4
:10310C00AFFAFB681B68DA69FB681B6842F4006263
:10311C00DA61FB681B68DA69FB681B6822F4806261
:10312C00DA61FB681B68D969BB681B691A02FB680A
:10313C001B680A43DA6102E00123FB7500BFFB68E0
:10314C00002283F83C20FB7D18461837BD4680BD15
:10315C0080B584B000AF786039600023FB737B6866
:10316C0093F83C30012B01D10223B4E07B6801229F
:10317C0083F83C207B68022283F83D207B681B6827
:10318C009B68BB60BB6823F07703BB60BB6823F410
:10319C007F43BB607B681B68BA689A603B681B689E
:1031AC00B3F5005F3ED0B3F5005F00F28780B3F556
:1031BC00805F00F08680B3F5805F7FD8702B1AD0CB
:1031CC00702B7BD8602B50D0602B77D8502B3CD0F9
:1031DC00502B73D8402B58D0402B6FD8302B64D049
:1031EC00302B6BD8202B60D0202B67D8002B5CD0D9
:1031FC00102B5AD062E07B6818683B6899683B6872
:10320C005A683B68DB6800F0F0FA7B681B689B68C7
:10321C00BB60BB6843F07703BB607B681B68BA6814
:10322C009A604FE07B6818683B6899683B685A68FD
:10323C003B68DB6800F0D9FA7B681B689A687B688E
:10324C001B6842F480429A603CE07B6818683B68DB
:10325C0059683B68DB681A4600F050FA7B681B68BB
:10326C005021184600F0A7FA2CE07B6818683B68E0
:10327C0059683B68DB681A4600F06EFA7B681B687D
:10328C006021184600F097FA1CE07B6818683B68D0
:10329C0059683B68DB681A4600F030FA7B681B689B
:1032AC004021184600F087FA0CE07B681A683B68EE
:1032BC001B681946104600F07EFA03E00123FB73ED
:1032CC0000E000BF7B68012283F83D207B68002270
:1032DC0083F83C20FB7B18461037BD4680BD80B47C
:1032EC0083B000AF786000BF0C37BD4680BC704720
:1032FC0080B483B000AF786000BF0C37BD4680BC93
:10330C00704780B483B000AF786000BF0C37BD4607
:10331C0080BC704780B483B000AF786000BF0C37BE
:10332C00BD4680BC7047000080B485B000AF7860AB
:10333C0039607B681B68FB607B68294A93420BD021
:10334C007B68B3F1804F07D07B68264A934203D049
:10335C007B68254A934208D1FB6823F07003FB601D
:10336C003B685B68FA681343FB607B681C4A9342BA
:10337C000BD07B68B3F1804F07D07B68194A93421E
:10338C0003D07B68184A934208D1FB6823F440733E
:10339C00FB603B68DB68FA681343FB60FB6823F057
:1033AC0080023B685B691343FB607B68FA681A60B8
:1033BC003B689A687B68DA623B681A687B689A6239
:1033CC007B68074A934203D13B681A697B681A638E
:1033DC007B6801225A6100BF1437BD4680BC704720
:1033EC00002C0140000400400008004080B487B06D
:1033FC0000AF786039607B681B6A7B617B681B6AF5
:10340C0023F001027B681A627B685B683B617B6816
:10341C009B69FB60FB6823F07003FB60FB6823F087
:10342C000303FB603B681B68FA681343FB607B6912
:10343C0023F002037B613B689B687A6913437B61D1
:10344C007B681C4A93420CD17B6923F008037B6197
:10345C003B68DB687A6913437B617B6923F0040367
:10346C007B617B68134A934211D13B6923F48073CF
:10347C003B613B6923F400733B613B685B693A69D0
:10348C0013433B613B689B693A6913433B617B681F
:10349C003A695A607B68FA689A613B685A687B683B
:1034AC005A637B687A691A6200BF1C37BD4680BCC0
:1034BC00704700BF002C014080B487B000AF78602B
:1034CC0039607B681B6A7B617B681B6A23F0100286
:1034DC007B681A627B685B683B617B689B69FB60FD
:1034EC00FB6823F4E043FB60FB6823F44073FB6050
:1034FC003B681B681B02FA681343FB607B6923F073
:10350C0020037B613B689B681B017A6913437B61D9
:10351C007B681D4A93420DD17B6923F080037B614C
:10352C003B68DB681B017A6913437B617B6923F081
:10353C0040037B617B68144A934213D13B6923F4AB
:10354C0080633B613B6923F400633B613B685B69CF
:10355C009B003A6913433B613B689B699B003A694A
:10356C0013433B617B683A695A607B68FA689A61DD
:10357C003B685A687B689A637B687A691A6200BFF9
:10358C001C37BD4680BC7047002C014080B487B00E
:10359C0000AF786039607B681B6A7B617B681B6A53
:1035AC0023F480727B681A627B685B683B617B6882
:1035BC00DB69FB60FB6823F07003FB60FB6823F0A6
:1035CC000303FB603B681B68FA681343FB607B6971
:1035DC0023F400737B613B689B681B027A6913437D
:1035EC007B617B681D4A93420DD17B6923F4006398
:1035FC007B613B68DB681B027A6913437B617B69E7
:10360C0023F480637B617B68144A934213D13B693A
:10361C0023F480533B613B6923F400533B613B68CB
:10362C005B691B013A6913433B613B689B691B0156
:10363C003A6913433B617B683A695A607B68FA6864
:10364C00DA613B685A687B68DA637B687A691A626C
:10365C0000BF1C37BD4680BC704700BF002C01402A
:10366C0080B487B000AF786039607B681B6A3B61BF
:10367C007B681B6A23F480527B681A627B685B68E8
:10368C007B617B68DB69FB60FB6823F4E043FB60D8
:10369C00FB6823F44073FB603B681B681B02FA68F1
:1036AC001343FB603B6923F400533B613B689B680D
:1036BC001B033A6913433B617B680F4A934209D160
:1036CC007B6923F480437B613B685B699B017A696E
:1036DC0013437B617B687A695A607B68FA68DA61AC
:1036EC003B685A687B681A647B683A691A6200BF47
:1036FC001C37BD4680BC7047002C014080B487B09D
:10370C0000AFF860B9607A60FB681B6A7B61FB688C
:10371C001B6A23F00102FB681A62FB689B693B6120
:10372C003B6923F0F0033B617B681B013A6913434F
:10373C003B617B6923F00A037B617A69BB681343A5
:10374C007B61FB683A699A61FB687A691A6200BF0F
:10375C001C37BD4680BC704780B487B000AFF860A2
:10376C00B9607A60FB681B6A7B61FB681B6A23F09B
:10377C001002FB681A62FB689B693B613B6923F48E
:10378C0070433B617B681B033A6913433B617B6964
:10379C0023F0A0037B61BB681B017A6913437B6137
:1037AC00FB683A699A61FB687A691A6200BF1C3738
:1037BC00BD4680BC704780B485B000AF786039607E
:1037CC007B689B68FB60FB6823F07003FB603A68C6
:1037DC00FB68134343F00703FB607B68FA689A604D
:1037EC0000BF1437BD4680BC704780B487B000AFB3
:1037FC00F860B9607A603B60FB689B687B617B69B1
:10380C0023F47F437B613B681A027B681A43BB68D5
:10381C0013437A6913437B61FB687A699A6000BF32
:10382C001C37BD4680BC704780B487B000AFF860D1
:10383C00B9607A60BB6803F01F03012202FA03F33C
:10384C007B61FB681A6A7B69DB431A40FB681A626E
:10385C00FB681A6ABB6803F01F03796801FA03F36B
:10386C001A43FB681A6200BF1C37BD4680BC704708
:10387C0080B485B000AF786039607B6893F83C30D9
:10388C00012B01D1022346E07B68012283F83C2006
:10389C007B68022283F83D207B681B685B68FB60B9
:1038AC007B681B689B68BB60FB6823F07003FB6044
:1038BC003B681B68FA681343FB607B681B68FA68FB
:1038CC005A607B681B68164A93420ED07B681B6853
:1038DC00B3F1804F09D07B681B68124A934204D025
:1038EC007B681B68104A93420CD1BB6823F08003A1
:1038FC00BB603B685B68BA681343BB607B681B6842
:10390C00BA689A607B68012283F83D207B680022AC
:10391C0083F83C20002318461437BD4680BC704702
:10392C00002C0140000400400008004080B483B02B
:10393C0000AF786000BF0C37BD4680BC704780B4C8
:10394C0083B000AF786000BF0C37BD4680BC7047B9
:10395C0080B582B000AF78607B68002B01D1012369
:10396C0042E07B6893F84130DBB2002B06D17B68D8
:10397C00002283F840207868FDF7D8FF7B6824226A
:10398C0083F841207B681B68DA687B681B6822F42B
:10399C000052DA60786800F01DF97B681B681A69C0
:1039AC007B681B6822F490421A617B681B685A6919
:1039BC007B681B6822F02A025A617B681B68DA68F4
:1039CC007B681B6842F40052DA607B6800225A6400
:1039DC007B68202283F841207B68202283F84220D8
:1039EC007B6800225A63002318460837BD4680BD09
:1039FC0080B58AB002AFF860B9603B601346FB80BB
:103A0C0000237B61FB6893F84130DBB2202B6DD136
:103A1C00BB68002B02D0FB88002B01D1012366E090
:103A2C00FB6800225A64FB68212283F84120FEF7D0
:103A3C004DF97861FB68FA889A84FB68FA88DA8415
:103A4C00FB689B68B3F5805F08D1FB681B69002B92
:103A5C0004D10023FB61BB68BB6103E0BB68FB6165
:103A6C000023BB612AE03B6800937B690022802124
:103A7C00F86800F040F80346002B01D0032336E031
:103A8C00FB69002B0BD1BB691B881A46FB681B68B2
:103A9C00C2F308025A60BB690233BB6107E0FB69E1
:103AAC001A78FB681B685A60FB690133FB61FB6881
:103ABC00DB8C9BB2013B9AB2FB68DA84FB68DB8C33
:103ACC009BB2002BCFD13B6800937B690022402135
:103ADC00F86800F010F80346002B01D0032306E031
:103AEC00FB68202283F84120002300E002231846C3
:103AFC002037BD4680BD80B590B000AFF860B9608E
:103B0C003B601346FB7150E0BB6CB3F1FF3F4CD0F4
:103B1C00BB6C002B07D0FEF7D9F802463B68D31AD2
:103B2C00BA6C9A4241D2FB681B680C33BB62BB6A0D
:103B3C0053E8003F7B627B6A23F4D073FB63FB6822
:103B4C001B680C33FA6B7A633B63396B7A6B41E815
:103B5C000023FB62FB6A002BE5D1FB681B68143366
:103B6C007B617B6953E8003F3B613B6923F00103B8
:103B7C00BB63FB681B681433BA6B3A62FB61F9696F
:103B8C003A6A41E80023BB61BB69002BE5D1FB68B5
:103B9C00202283F84120FB68202283F84220FB6816
:103BAC00002283F8402003230FE0FB681B681A688F
:103BBC00BB681340BA689A420CBF01230023DBB2E6
:103BCC001A46FB799A429FD0002318464037BD46CF
:103BDC0080BD000080B584B000AF78607B681B6846
:103BEC001B6923F440517B68DA687B681B680A43C5
:103BFC001A617B689A687B681B691A437B685B69EE
:103C0C001343BB607B681B68DB6823F4B05323F061
:103C1C000C037A681268B9680B43D3607B681B6825
:103C2C005B6923F440717B689A697B681B680A4363
:103C3C005A617B681B682C4A934203D1FEF7C0FE85
:103C4C00F86002E0FEF7A8FEF860FA6813469B00E5
:103C5C0013449A001A447B685B689B00B2FBF3F335
:103C6C00224AA2FB03235B091901FA6813469B0045
:103C7C0013449A001A447B685B689B00B2FBF3F216
:103C8C001A4BA3FB02035B09642000FB03F3D31A5A
:103C9C001B013233154AA2FB03235B0903F0F0032B
:103CAC001944FA6813469B0013449A001A447B6823
:103CBC005B689B00B2FBF3F20C4BA3FB02035B09AA
:103CCC00642000FB03F3D31A1B013233074AA2FB17
:103CDC0003235B0903F00F027B681B680A449A609C
:103CEC0000BF1037BD4680BD003801401F85EB5129
:103CFC00014B1868704700BF8400002070B5002687
:103D0C000C4D0D4C641BA410A64209D100F0F8FF19
:103D1C0000260A4D0A4C641BA410A64205D170BDA6
:103D2C0055F8043B98470136EEE755F8043B9847A5
:103D3C000136F2E77C4E00087C4E00087C4E0008F1
:103D4C00804E000803460244934200D1704703F8AA
:103D5C00011BF9E70FB40A4B13B51C6824B1A36916
:103D6C0013B9204600F05EFA05AB2046049AA16810
:103D7C00019300F029FC02B0BDE8104004B070477C
:103D8C008400002070B50E46054618B183690BB946
:103D9C0000F048FAAB69AC6813B9284600F042FA57
:103DAC002C4B9C4220D16C68636EDB0705D4A38935
:103DBC00980502D4A06D00F0D3FAA38919071DD57C
:103DCC002369DBB1013EA36816F8011F013BA36018
:103DDC0039BB002B38DA22460A21284600F048F875
:103DEC00013011D00A2511E01B4B9C4201D1AC686B
:103DFC00DAE71A4B9C4208BFEC68D5E72146284607
:103E0C0000F088F80028DDD04FF0FF35636EDA073C
:103E1C0005D4A3899B0502D4A06D00F0A2FA284614
:103E2C0070BD002B04DAA2699A4206DC0A2904D080
:103E3C0023685A1C22601970C5E72246284600F0F8
:103E4C0017F80130BFD1DFE70A2523685A1C22601E
:103E5C001D70DBE7084E0008284E0008E84D0008EE
:103E6C00024B01461868FFF78DBF00BF840000208D
:103E7C00F8B50E461446054618B183690BB900F027
:103E8C00D1F9214B9C422BD16C68A369A360A38907
:103E9C001A072FD523696BB323692068F6B2C01AB1
:103EAC0063693746834204DC2146284600F026F934
:103EBC0030BBA3680130013BA36023685A1C22600D
:103ECC001E706369834204D0A389DB0706D50A2ED2
:103EDC0004D12146284600F011F988B93846F8BDBE
:103EEC000A4B9C4201D1AC68CFE7094B9C4208BFFE
:103EFC00EC68CAE72146284600F00CF80028CBD025
:103F0C004FF0FF37EAE700BF084E0008284E0008C4
:103F1C00E84D0008324B70B51D6806460C4625B1BD
:103F2C00AB6913B9284600F07DF92E4B9C420FD19A
:103F3C006C68A389B4F90C2019072CD4DD0611D4B4
:103F4C000923336042F040034FF0FF30A3813EE081
:103F5C00254B9C4201D1AC68EBE7244B9C4208BF3B
:103F6C00EC68E6E7580712D5616B41B104F14403E4
:103F7C00994202D0304600F059FA00236363A389BA
:103F8C0023F02403A3810023636023692360A389A6
:103F9C0043F00803A38123694BB9A38903F420736D
:103FAC00B3F5007F03D02146304600F0FFF9A0891D
:103FBC00B4F90C2010F001030AD00023A36063694C
:103FCC005B42A361236943B910F08000BAD170BD84
:103FDC00810758BF6369A360F4E70020F7E700BFCF
:103FEC0084000020084E0008284E0008E84D000808
:103FFC008A892DE9F041054610070C4658D44B68C8
:10400C00002B05DC0B6C002B02DC0020BDE8F081E2
:10401C00E66A002EF9D0002312F480522F682B6030
:10402C0032D0606DA3895A0705D56368C01A636BDB
:10403C000BB1236CC01A00230246E66A2846216A9B
:10404C00B047431CA38906D129681D292CD82A4ABC
:10405C00CA40D60728D5002262602269D9042260A2
:10406C0004D5421C01D12B6803B96065616B2F60CC
:10407C000029CAD004F14403994202D0284600F02A
:10408C00D5F900206063C1E7216A01232846B047B7
:10409C00411CC7D12B68002BC4D01D2B01D0162B73
:1040AC0001D12F60B1E7A38943F04003A381ADE7B1
:1040BC000F69002FA9D0930718BF00230E6808BF03
:1040CC004B69A6EB07080F608B60B8F1000F9CDD05
:1040DC0043463A462846216AA66AB047002806DCC1
:1040EC00A3894FF0FF3043F04003A3818EE70744D0
:1040FC00A8EB0008E9E700BF0100402038B50B69C8
:10410C0005460C4613B90025284638BD18B18369FD
:10411C000BB900F087F8144B9C421BD16C68B4F9B6
:10412C000C30002BEFD0626ED00704D4990502D46A
:10413C00A06D00F015F928462146FFF759FF636E74
:10414C000546DA07E0D4A3899B05DDD4A06D00F009
:10415C0008F9D9E7054B9C4201D1AC68DFE7044B69
:10416C009C4208BFEC68DAE7084E0008284E0008AD
:10417C00E84D0008002310B50446C0E90033C0E93F
:10418C000433836081814366C281836119460822AE
:10419C005C30FFF7D7FD054B24626362044BA362CE
:1041AC00044BE362044B236310BD00BF814B00083A
:1041BC00A34B0008DB4B0008FF4B0008014900F043
:1041CC00AFB800BF0941000870B568254A1E5543B9
:1041DC000E4605F1740100F075F9044640B100215A
:1041EC00C0E900160C30A06005F16802FFF7AAFDCB
:1041FC00204670BD014800F0B3B800BF900300200A
:10420C00014800F0AEB800BF90030020014800F058
:10421C00A7B800BF8B030020014800F0A2B800BF74
:10422C008B03002010B50446FFF7F0FFA3691BB108
:10423C00BDE81040FFF7F0BFC4E912332365134B00
:10424C00134A1B68A262A34208BF0123204608BF81
:10425C00A36100F01FF86060204600F01BF8A0601E
:10426C00204600F017F800220421E0606068FFF798
:10427C0081FF01220921A068FFF77CFF0222122195
:10428C00E068FFF777FF0123A361D1E7E44D000855
:10429C00C9410008F8B50746FFF7ACFF1E4B1E6876
:1042AC00B36913B93046FFF7BDFF4836D6E9013480
:1042BC00013B03D533680BB33668F7E7B4F90C5000
:1042CC00D5B9164B04F15800E360656600F047F869
:1042DC00FFF796FF08222946C4E90155C4E90455A5
:1042EC002560A56104F15C00FFF72CFDC4E90D55B8
:1042FC00C4E912552046F8BD6834D9E70421384684
:10430C00FFF762FF044630600028D5D1FFF778FF35
:10431C000C233B60EEE700BFE44D00080100FFFFFB
:10432C002DE9F84306468846002700F14804D4E9F5
:10433C000195B9F1010905D52468002CF7D138464F
:10434C00BDE8F883AB89012B07D9B5F90E300133E1
:10435C0003D029463046C04707436835E9E7704724
:10436C007047704770B50E46B1F90E10144600290F
:10437C001D4696B007DA00232B60B3891A0610D4B9
:10438C004FF480630EE06A4600F05AFC0028F2DB22
:10439C00019A02F47042A2F500535A425A412A6023
:1043AC00EEE740230020236016B070BD8B8973B5F7
:1043BC009D0706460C4607D504F14703236023618D
:1043CC000123636102B070BD6A4601ABFFF7CAFFFF
:1043DC0000990546304600F075F848B9B4F90C3030
:1043EC009A05EFD423F0030343F00203A381E3E720
:1043FC000D4BB362A389206043F08003A381009B23
:10440C0020616361019B5BB13046B4F90E1000F082
:10441C0029FC28B1A38923F0030343F00103A381F2
:10442C00A0890543A581CDE7C941000838B50546EB
:10443C00002943D051F8043C0C1F002BB8BFE418E2
:10444C0000F040FC1E4A1368104633B963601460D8
:10445C002846BDE8384000F03BBCA3420AD921688D
:10446C006218934201BF1A685B685218226063603D
:10447C000460EDE71A465B680BB1A342FAD91168E8
:10448C005018A0420BD1206801445018834211608F
:10449C00DED118685B68014411605360D8E702D91B
:1044AC000C232B60D4E7206821188B4201BF1968BC
:1044BC005B680918216063605460C9E738BD00BFB0
:1044CC0050020020F8B5CD1C25F0030508350C2D45
:1044DC0038BF0C25002D064601DBA94203D90C235D
:1044EC0033600020F8BD00F0EDFB21490A6814464A
:1044FC009CB9204F3B6823B92146304600F02AFB7B
:10450C0038602946304600F025FB431C23D10C2390
:10451C003046336000F0DCFBE3E723685B1B17D409
:10452C000B2B03D923601C44256004E06368A24272
:10453C000CBF0B605360304600F0CAFB04F10B005B
:10454C00231D20F00700C21ACCD01B1AA350C9E7B8
:10455C0022466468CCE7C41C24F00304A042E3D0D8
:10456C00211A304600F0F6FA0130DDD1CFE700BF5A
:10457C005002002054020020936810B4013B002B21
:10458C00936007DA9469A34201DB0A2902D110BCBB
:10459C00FFF76EBC1368581C10601970084610BCED
:1045AC007047F8B506460F461446D518AC4201D1F3
:1045BC00002007E03A46304614F8011BFFF7DCFFF9
:1045CC00431CF3D1F8BD00002DE9F04F0D46144605
:1045DC00984606469DB018B183690BB9FFF722FEC9
:1045EC00894B9D421BD175686B6ED90705D4AB897D
:1045FC009A0502D4A86DFFF7B3FEAB891B0701D552
:10460C002B69EBB929463046FFF784FCC0B16B6EC1
:10461C00DC070ED54FF0FF301DB0BDE8F08F7B4BA3
:10462C009D4201D1B568DFE7794B9D4208BFF56823
:10463C00DAE7AB899805EDD4A86DFFF792FEE9E7B0
:10464C000023099320238DF8293030234FF00109E2
:10465C00CDF80C80DFF8BC818DF82A3023469A46C1
:10466C0013F8012B0AB1252AF9D1BAEB040B0BD0A4
:10467C005B46224629463046FFF793FF013000F097
:10468C00AA80099A5A4409929AF80030002B00F03B
:10469C00A28000234FF0FF32CDE905230AF1010A75
:1046AC00049307938DF853301A935446052214F84B
:1046BC00011B584800F0F8FA049AD8B9D10644BF47
:1046CC0020238DF85330130744BF2B238DF8533020
:1046DC009AF800302A2B15D0544600204FF00A0CC3
:1046EC00079A214611F8013B303B092B4ED9B0B14A
:1046FC00079214E0A0EB080309FA03F31343A24654
:10470C000493D2E7039B191D1B680391002BBBBFBD
:10471C005B4242F0020207930793B8BF04922378DE
:10472C002E2B0CD163782A2B35D1039B02341A1D06
:10473C001B680392002BB8BF4FF0FF330593DFF8D3
:10474C00E4A003225046217800F0AEFA40B1402399
:10475C00A0EB0A0003FA00F0049B0134034304931A
:10476C0014F8011B06222C488DF8281000F09CFA36
:10477C0000283FD0294B1BBB039B073323F00703B7
:10478C0008330393099B3B44099367E70C460120CC
:10479C000CFB0232A5E700234FF00A0C194601343A
:1047AC000593204610F8012B303A092A03D9002B27
:1047BC00C5D00591C3E7044601230CFB0121F0E7AA
:1047CC0003AB00932A463046154B04A9AFF3008087
:1047DC000746781CD6D16B6ED90705D4AB899A05E0
:1047EC0002D4A86DFFF7BDFDAB895B063FF512AF98
:1047FC00099811E703AB00932A463046084B04A9ED
:10480C0000F082F8E4E700BF084E0008284E0008CC
:10481C00E84D0008484E0008524E00080000000009
:10482C00AF4500084E4E00082DE9F0471646994654
:10483C008A680B6907469342B8BF1346336091F8F8
:10484C0043200C46DDF820800AB101333360236825
:10485C00990642BF336802333360256815F00605AC
:10486C0006D104F1190AE36832689B1AAB4228DCC2
:10487C0094F84320131E226818BF012392062DD4EE
:10488C004946384604F14302C047013020D0236822
:10489C00E56803F00603042B18BF002532684FF0BF
:1048AC000006A36808BFAD1A226908BF25EAE575A2
:1048BC009342C4BF9B1AED181A34B5421AD100208A
:1048CC0008E00123524649463846C047013003D11F
:1048DC004FF0FF30BDE8F0870135C4E73020E11818
:1048EC0081F843005A1C94F845102244023382F894
:1048FC004310C5E70123224649463846C0470130DC
:10490C00E6D00136D9E700002DE9FF470C46277E9B
:10491C009146782F80469A460C9904F1430207D8A9
:10492C00622F0AD8002F00F0D980582F00F0A480F5
:10493C0004F1420684F842703AE0A7F16303152BA8
:10494C00F6D801A050F823F0AD490008C149000881
:10495C003D4900083D4900083D4900083D49000813
:10496C00C14900083D4900083D4900083D4900087F
:10497C003D490008CF4A0008F1490008B14A000837
:10498C003D4900083D490008F14A00083D4900082E
:10499C00F14900083D4900083D490008B94A0008A2
:1049AC000B6804F142061A1D1B680A6084F8423039
:1049BC000123A4E0256808682E0600F104030AD53B
:1049CC0005680B60002D03DA2D236D4284F843300B
:1049DC000A235E4819E015F0400F05680B6018BFFC
:1049EC002DB2EFE70B682568181D0860280601D565
:1049FC001D6802E06906FBD51D886F2F0CBF0823CC
:104A0C000A235248002184F843106668002EA8BF80
:104A1C002168A660A4BF21F0040121600DB9002E0D
:104A2C004DD01646B5FBF3F103FB1157C75D06F8E5
:104A3C00017D2F46BB420D46F4D9082B0BD12368C0
:104A4C00DF0708D5236961689942DEBF302306F879
:104A5C00013C06F1FF36921B22614B462146404633
:104A6C00CDF800A003AAFFF7DFFE01304CD14FF0C8
:104A7C00FF3004B0BDE8F087344884F845700E6808
:104A8C00236856F8045B1F060E6014D5D90744BF83
:104A9C0043F0200323601DB9236823F02003236017
:104AAC001023AFE7236843F02003236078232848C2
:104ABC0084F84530E3E75E0648BFADB2E6E716463C
:104ACC00BBE70B6826681D1D60690D6035061B6809
:104ADC0001D5186002E07106FBD51880002316463C
:104AEC002361BAE70B681A1D0A601E680021304664
:104AFC00626800F0D9F808B1801B606063682361BC
:104B0C00002384F84330A8E73246494640462369DF
:104B1C00D0470130ABD023689B0713D4E068039BCC
:104B2C009842B8BF1846A4E701233246494640468E
:104B3C00D04701309BD00135E36803995B1AAB4237
:104B4C00F2DCEBE7002504F11906F5E7594E0008F5
:104B5C006A4E000838B50023054D044608462B6004
:104B6C00FDF72AF8431C02D12B6803B1236038BD32
:104B7C009403002010B50C46B1F90E1000F0AEF8FD
:104B8C000028ABBF636DA3891B1823F48053ACBF03
:104B9C006365A38110BD2DE9F0411F468B89054645
:104BAC00DB050C46164605D502230022B1F90E1082
:104BBC0000F068F8A389324623F48053A381284679
:104BCC003B46B4F90E10BDE8F04100F017B810B533
:104BDC000C46B1F90E1000F055F8431CA38915BF13
:104BEC00606523F4805343F48053A38118BFA381E1
:104BFC0010BDB1F90E1000F013B8000038B5044622
:104C0C00084611460022054D2A601A46FCF787FF1C
:104C1C00431C02D12B6803B1236038BD94030020E0
:104C2C0038B50023054D044608462B60FCF793FF6E
:104C3C00431C02D12B6803B1236038BD94030020C0
:104C4C0038B50023064D0446084611462B60FCF788
:104C5C008DFF431C02D12B6803B1236038BD00BF0C
:104C6C009403002038B50023054D044608462B60FC
:104C7C00FCF78BFF431C02D12B6803B1236038BDBA
:104C8C009403002038B50446084611460022054D11
:104C9C002A601A46FCF783FF431C02D12B6803B130
:104CAC00236038BD94030020034610B5C9B20244FA
:104CBC009342184601D1002003E0047801338C4262
:104CCC00F6D110BD0148FFF74BBB00BF8C03002091
:104CDC000148FFF746BB00BF8C03002038B50446E3
:104CEC00084611460022054D2A601A46FCF7FAFECA
:104CFC00431C02D12B6803B1236038BD9403002000
:104D0C00F8B500BFF8BC08BC9E467047F8B500BFAC
:084D1C00F8BC08BC9E4670477C
:104D24003D3D3D3D3D3D3D3D3D3D3D3D3D4D414E8A
:104D340055414C204D4F44453D3D3D3D3D3D3D3D60
:104D44003D3D3D3D3D0D000043757272656E74201E
:104D540074696D653A2025640D0A0000437572720A
:104D6400656E742074696D653A2025640D0A00002F
:104D740052656D61696E696E6720686F72697A6FDA
:104D84006E74616C207365636F6E643A2025640DE4
:104D94000A00000052656D61696E696E6720766570
:104DA40072746963616C207365636F6E643A202565
:104DB400640D0A000000000000000000010203046A
:104DC40006070809000000000102030402030405A9
:104DD400060708090A0B0C0D0E0F10100102000043
:104DE4008800002000000000000000000000000017
:104DF40000000000000000000000000000000000AF
:104E0400000000000000000000000000000000009E
:104E1400000000000000000000000000000000008E
:104E2400000000000000000000000000000000007E
:104E3400000000000000000000000000000000006E
:104E440000000000232D302B2000686C4C006566A8
:104E540067454647003031323334353637383941C7
:104E640042434445460030313233343536373839DD
:084E74006162636465660000E1
:044E7C0031010008F8
:044E80000D01000818
:104E8400010000000100000001000000010000001A
:104E9400010000000100000001000000010000000A
:104EA40001000000010000000100000001000000FA
:104EB40001000000010000000100000001000000EA
:104EC400D00700000008014000080140000801402C
:104ED400000C01400100000002000000100000006E
:104EE40001000000050000000300000002000000B3
:104EF40028000000010000000024F400100000005D
:104F0400010000008800002000000000084E000896
:104F1400284E0008E84D00080000000000000000D2
:104F2400000000000000000000000000000000007D
:104F3400000000000000000000000000000000006D
:104F4400000000000000000000000000000000005D
:104F5400000000000000000000000000000000004D
:084F6400000000000000000045
:0400000508001C3D96
:00000001FF
